{"abi":[{"type":"constructor","inputs":[],"stateMutability":"nonpayable"},{"type":"function","name":"balance","inputs":[],"outputs":[{"name":"","type":"uint256","internalType":"uint256"}],"stateMutability":"view"},{"type":"function","name":"changeOwner","inputs":[{"name":"newOwner","type":"address","internalType":"address"}],"outputs":[],"stateMutability":"nonpayable"},{"type":"function","name":"deposit","inputs":[],"outputs":[],"stateMutability":"payable"},{"type":"function","name":"getBalance","inputs":[],"outputs":[{"name":"","type":"uint256","internalType":"uint256"}],"stateMutability":"view"},{"type":"function","name":"owner","inputs":[],"outputs":[{"name":"","type":"address","internalType":"address"}],"stateMutability":"view"},{"type":"function","name":"transferFunds","inputs":[{"name":"adr","type":"address","internalType":"address"},{"name":"amount","type":"uint256","internalType":"uint256"}],"outputs":[],"stateMutability":"nonpayable"},{"type":"function","name":"withdraw","inputs":[{"name":"amount","type":"uint256","internalType":"uint256"}],"outputs":[],"stateMutability":"nonpayable"},{"type":"event","name":"Deposit","inputs":[{"name":"from","type":"address","indexed":false,"internalType":"address"},{"name":"amount","type":"uint256","indexed":false,"internalType":"uint256"}],"anonymous":false},{"type":"event","name":"OwnerChanged","inputs":[{"name":"oldOwner","type":"address","indexed":false,"internalType":"address"},{"name":"newOwner","type":"address","indexed":false,"internalType":"address"}],"anonymous":false},{"type":"event","name":"Transfer","inputs":[{"name":"from","type":"address","indexed":false,"internalType":"address"},{"name":"to","type":"address","indexed":false,"internalType":"address"},{"name":"amount","type":"uint256","indexed":false,"internalType":"uint256"}],"anonymous":false},{"type":"event","name":"Withdraw","inputs":[{"name":"to","type":"address","indexed":false,"internalType":"address"},{"name":"amount","type":"uint256","indexed":false,"internalType":"uint256"}],"anonymous":false}],"bytecode":{"object":"0x6080604052348015600e575f5ffd5b50335f5f6101000a81548173ffffffffffffffffffffffffffffffffffffffff021916908373ffffffffffffffffffffffffffffffffffffffff1602179055505f600181905550610aab806100625f395ff3fe60806040526004361061006f575f3560e01c8063990dc9db1161004d578063990dc9db146100ef578063a6f9dae114610117578063b69ef8a81461013f578063d0e30db0146101695761006f565b806312065fe0146100735780632e1a7d4d1461009d5780638da5cb5b146100c5575b5f5ffd5b34801561007e575f5ffd5b50610087610173565b60405161009491906106ba565b60405180910390f35b3480156100a8575f5ffd5b506100c360048036038101906100be9190610701565b61017c565b005b3480156100d0575f5ffd5b506100d9610327565b6040516100e6919061076b565b60405180910390f35b3480156100fa575f5ffd5b50610115600480360381019061011091906107ae565b61034b565b005b348015610122575f5ffd5b5061013d600480360381019061013891906107ec565b6104d9565b005b34801561014a575f5ffd5b50610153610607565b60405161016091906106ba565b60405180910390f35b61017161060d565b005b5f600154905090565b5f5f9054906101000a900473ffffffffffffffffffffffffffffffffffffffff1673ffffffffffffffffffffffffffffffffffffffff163373ffffffffffffffffffffffffffffffffffffffff161461020a576040517f08c379a000000000000000000000000000000000000000000000000000000000815260040161020190610871565b60405180910390fd5b60015481111561024f576040517f08c379a0000000000000000000000000000000000000000000000000000000008152600401610246906108d9565b60405180910390fd5b8060015f8282546102609190610924565b925050819055505f5f9054906101000a900473ffffffffffffffffffffffffffffffffffffffff1673ffffffffffffffffffffffffffffffffffffffff166108fc8290811502906040515f60405180830381858888f193505050501580156102ca573d5f5f3e3d5ffd5b507f884edad9ce6fa2440d8a54cc123490eb96d2768479d49ff9c7366125a94243645f5f9054906101000a900473ffffffffffffffffffffffffffffffffffffffff168260405161031c929190610957565b60405180910390a150565b5f5f9054906101000a900473ffffffffffffffffffffffffffffffffffffffff1681565b5f5f9054906101000a900473ffffffffffffffffffffffffffffffffffffffff1673ffffffffffffffffffffffffffffffffffffffff163373ffffffffffffffffffffffffffffffffffffffff16146103d9576040517f08c379a00000000000000000000000000000000000000000000000000000000081526004016103d090610871565b60405180910390fd5b60015481111561041e576040517f08c379a0000000000000000000000000000000000000000000000000000000008152600401610415906108d9565b60405180910390fd5b8060015f82825461042f9190610924565b925050819055508173ffffffffffffffffffffffffffffffffffffffff166108fc8290811502906040515f60405180830381858888f19350505050158015610479573d5f5f3e3d5ffd5b507fddf252ad1be2c89b69c2b068fc378daa952ba7f163c4a11628f55a4df523b3ef5f5f9054906101000a900473ffffffffffffffffffffffffffffffffffffffff1683836040516104cd9392919061097e565b60405180910390a15050565b5f5f9054906101000a900473ffffffffffffffffffffffffffffffffffffffff1673ffffffffffffffffffffffffffffffffffffffff163373ffffffffffffffffffffffffffffffffffffffff1614610567576040517f08c379a000000000000000000000000000000000000000000000000000000000815260040161055e90610871565b60405180910390fd5b5f5f5f9054906101000a900473ffffffffffffffffffffffffffffffffffffffff169050815f5f6101000a81548173ffffffffffffffffffffffffffffffffffffffff021916908373ffffffffffffffffffffffffffffffffffffffff1602179055507fb532073b38c83145e3e5135377a08bf9aab55bc0fd7c1179cd4fb995d2a5159c81836040516105fb9291906109b3565b60405180910390a15050565b60015481565b5f341161064f576040517f08c379a000000000000000000000000000000000000000000000000000000000815260040161064690610a24565b60405180910390fd5b3460015f8282546106609190610a42565b925050819055507fe1fffcc4923d04b559f4d29a8bfc6cda04eb5b0d3c460751c2402c5c5cc9109c3334604051610698929190610957565b60405180910390a1565b5f819050919050565b6106b4816106a2565b82525050565b5f6020820190506106cd5f8301846106ab565b92915050565b5f5ffd5b6106e0816106a2565b81146106ea575f5ffd5b50565b5f813590506106fb816106d7565b92915050565b5f60208284031215610716576107156106d3565b5b5f610723848285016106ed565b91505092915050565b5f73ffffffffffffffffffffffffffffffffffffffff82169050919050565b5f6107558261072c565b9050919050565b6107658161074b565b82525050565b5f60208201905061077e5f83018461075c565b92915050565b61078d8161074b565b8114610797575f5ffd5b50565b5f813590506107a881610784565b92915050565b5f5f604083850312156107c4576107c36106d3565b5b5f6107d18582860161079a565b92505060206107e2858286016106ed565b9150509250929050565b5f60208284031215610801576108006106d3565b5b5f61080e8482850161079a565b91505092915050565b5f82825260208201905092915050565b7f4f6e6c79206f776e65722063616e20657865637574652e0000000000000000005f82015250565b5f61085b601783610817565b915061086682610827565b602082019050919050565b5f6020820190508181035f8301526108888161084f565b9050919050565b7f496e73756666696369656e742066756e647300000000000000000000000000005f82015250565b5f6108c3601283610817565b91506108ce8261088f565b602082019050919050565b5f6020820190508181035f8301526108f0816108b7565b9050919050565b7f4e487b71000000000000000000000000000000000000000000000000000000005f52601160045260245ffd5b5f61092e826106a2565b9150610939836106a2565b9250828203905081811115610951576109506108f7565b5b92915050565b5f60408201905061096a5f83018561075c565b61097760208301846106ab565b9392505050565b5f6060820190506109915f83018661075c565b61099e602083018561075c565b6109ab60408301846106ab565b949350505050565b5f6040820190506109c65f83018561075c565b6109d3602083018461075c565b9392505050565b7f43616e6e6f74206465706f7369742030204554480000000000000000000000005f82015250565b5f610a0e601483610817565b9150610a19826109da565b602082019050919050565b5f6020820190508181035f830152610a3b81610a02565b9050919050565b5f610a4c826106a2565b9150610a57836106a2565b9250828201905080821115610a6f57610a6e6108f7565b5b9291505056fea2646970667358221220856724e99f0cb857e6e75adc43ca0f7c3e1cbdb84489b8c8319885faab2def2564736f6c634300081d0033","linkReferences":{}},"methodIdentifiers":{"balance()":"b69ef8a8","changeOwner(address)":"a6f9dae1","deposit()":"d0e30db0","getBalance()":"12065fe0","owner()":"8da5cb5b","transferFunds(address,uint256)":"990dc9db","withdraw(uint256)":"2e1a7d4d"},"id":0}